:020000040800F2
:1000000000000220D5830008CF090008D1090008AC
:10001000D3090008D5090008D7090008000000002E
:100020000000000000000000000000003181000816
:10003000D909000800000000D1810008A17C000857
:1000400029840008298400082984000829840008DC
:1000500029840008298400082984000829840008CC
:1000600029840008298400082984000829840008BC
:10007000DD09000829840008298400082984000873
:10008000298400082984000829840008298400089C
:10009000298400082984000829840008298400088C
:1000A000298400082984000829840008298400087C
:1000B000298400082984000829840008298400086C
:1000C000298400082984000829840008298400085C
:1000D000298400082984000829840008298400084C
:1000E00029840008298400080000000029840008F1
:1000F000298400082984000829840008298400082C
:10010000298400082984000829840008298400081B
:100110002984000829840008ED09000829840008C2
:1001200029840008298400082984000829840008FB
:1001300029840008298400082984000829840008EB
:1001400000000000000000000000000000000000AF
:1001500029840008298400082984000829840008CB
:1001600029840008298400082984000829840008BB
:100170002984000829840008298400080000000060
:10018000298400082984000829840008298400089B
:10019000298400082984000829840008298400088B
:1001A000298400082984000829840008298400087B
:1001B000298400082984000829840008298400086B
:1001C000298400082984000829840008298400085B
:1001D000298400082984000829840008298400084B
:1001E000298400082984000829840008298400083B
:1001F000298400082984000829840008298400082B
:10020000298400082984000829840008298400081A
:10021000298400082984000829840008298400080A
:1002200029840008298400082984000800000000AF
:10023000298400082984000800000000298400089F
:1002400029840008298400082984000829840008DA
:1002500029840008298400082984000829840008CA
:1002600029840008298400082984000829840008BA
:10027000298400082984000829840008000000005F
:10028000298400082984000829840008000000004F
:080290000000000029840008B1
:1002A00053B94AB9002908BF00281CBF4FF0FF31DD
:1002B0004FF0FF3000F00CB8ADF1080C6DE904CE42
:1002C00008F0EEF8DDF804E0DDE9022304B0704741
:1002D000704700BF10B5054C237833B9044B13B1F8
:1002E0000448AFF300800123237010BD14000024E4
:1002F000000000005C87000808B5034B1BB10349F0
:100300000348AFF3008008BD00000000180000247F
:100310005C87000830B585B00024009401940294F5
:10032000039404F0B5FE01238DF800308DF80140F0
:1003300001941F228DF8082087228DF809208DF85E
:100340000A408DF80B408DF80C308DF80D308DF88B
:100350000E408DF80F40684604F0B8FE042004F00B
:10036000A5FE05B030BD0000F0B58DB007AD00248E
:100370000794089409940A940B94394BD3F8E0201D
:1003800042F01002C3F8E020D3F8E02002F010029F
:100390000192019AD3F8E02042F08002C3F8E020F5
:1003A000D3F8E02002F080020292029AD3F8E02013
:1003B00042F00102C3F8E020D3F8E02002F001028D
:1003C0000392039AD3F8E02042F00202C3F8E0203F
:1003D000D3F8E02002F002020492049AD3F8E0205D
:1003E00042F00802C3F8E020D3F8E02002F008024F
:1003F0000592059AD3F8E02042F00402C3F8E02009
:10040000D3F8E03003F004030693069B154F012256
:100410004FF4E051384603F003FF4FF4E0530793E5
:1004200001260896099403230A932946384603F0C7
:10043000E1FD4FF4F04307930894099629460A48D2
:1004400003F0D8FD4FF480730793022308930994B7
:100450000A940B942946054803F0CCFD0DB0F0BD7D
:100460000044025800100258000C025800000258C4
:1004700000B583B00B4BD3F8D82042F00102C3F88B
:10048000D820D3F8D83003F001030193019B002258
:1004900005210C2004F0E8FD0C2004F0F5FD03B06C
:1004A0005DF804FB004402582DE9F0418AB007AF23
:1004B00000240794089409940094019402940394EE
:1004C000049405940694194D194B2B606C60AC6034
:1004D000EC604FF00408C5F810802C756C75012392
:1004E000AB612C776C62AC62EC622C636C6385F858
:1004F0003840EB63284601F067F8079439462846F0
:1005000001F08CF90B4B009306230193029440F207
:10051000FF730393CDF8108005948DF81940694658
:10052000284600F06DFD0AB0BDE8F08154030024B8
:10053000002002408000501D08B50948094B0360A7
:10054000002343608360C36003614361836103628E
:1005500043628362C362036304F0FAFE08BD00BF16
:10056000040300240000024838B50F4C0F4B2360F1
:10057000A3F17863A3F57D23A3F64F6363600025A1
:10058000A5600123E36025616561A561E5612562E0
:10059000204604F021FE2946204604F081FE29462B
:1005A000204604F0AAFE38BD380200240054004062
:1005B00038B50F4C0F4B2360A3F17863A3F57E236E
:1005C000A3F24F2363600025A5600123E36025614A
:1005D0006561A561E5612562204604F0FDFD2946BF
:1005E000204604F05DFE2946204604F086FE38BD14
:1005F000E40100240058004008B51248124B036083
:100600004FF480034360002383600722C2600361CC
:1006100043614FF0806282614FF04052C2610362D9
:1006200043628362C3624FF0804242638363C36369
:10063000036443648364C36403654365836504F0B2
:1006400069FF08BD5C0100240030014038B5104C42
:10065000104B23604FF4E13363600025A560E56033
:1006600025610C236361A561E56125626562A56270
:10067000204605F0ECFF2946204606F060F82946A2
:10068000204606F081F8204606F03AF838BD00BF53
:10069000C80000240010014038B5104C104B2360F6
:1006A0004FF4E13363600025A560E56025610C230C
:1006B0006361A561E56125626562A562204605F07A
:1006C000C6FF2946204606F03AF82946204606F09D
:1006D0005BF8204606F014F838BD00BF3400002453
:1006E0000044004000B583B0074B93E80300CDE918
:1006F0000001642307226946044805F0D3FE4FF445
:100700007A7007F078FBEFE774870008C8000024D0
:1007100010B582B08DF807000D4C00224FF48061B7
:10072000204603F07DFD00224FF40061204603F0D7
:1007300077FD0A2301220DF10701064804F0B2FFFC
:1007400001224FF40061204603F06AFD02B010BDA3
:10075000001002585C01002410B582B08DF807002B
:100760000D4C01224FF48061204603F059FD002218
:100770004FF40061204603F053FD0A2301220DF1DE
:100780000701064804F08EFF01224FF40061204665
:1007900003F046FD02B010BD001002585C010024B9
:1007A00038B5642004F0FEFCAE20FFF7B1FFD52081
:1007B000FFF7AEFF8020FFF7ABFFA820FFF7A8FFF1
:1007C0003F20FFF7A5FFD320FFF7A2FF0020FFF790
:1007D0009FFF4020FFF79CFF8D20FFF799FF14201B
:1007E000FFF796FF2020FFF793FF0220FFF790FF0F
:1007F000A120FFF78DFFC820FFF78AFFDA20FFF75F
:1008000087FF1220FFF784FF8120FFF781FFCF20B1
:10081000FFF77EFFD920FFF77BFFF120FFF778FF7E
:10082000DB20FFF775FF4020FFF772FFA420FFF7E2
:100830006FFFA620FFF76CFFAF20FFF769FF0025D1
:1008400000E00135072D12DCA5F15000C0B2FFF722
:100850005FFF0020FFF75CFF1020FFF759FF002427
:100860007F2CEEDC0020FFF777FF0134F8E738BD7E
:1008700070B59CB04C22002109A807F0D6FD2022BB
:10088000002101A807F0D1FD022004F071FB002334
:100890000093284B9A6942F440429A619B6903F4A1
:1008A00040430093244BDA6A42F00102DA62DB6AC9
:1008B00003F001030093009B1E4B9B6913F4005F40
:1008C000FAD00223099301220C9240250D95129330
:1008D00000241394042614963C22159216930522A4
:1008E000179218930C2319931A941B9409A801F0DA
:1008F0003DF83F23019303230293039408230493B9
:10090000059506954FF480630793089531460DEBE6
:10091000060001F0D1FC094AD36A43F40033D362E4
:100920004FF400124FF44001204601F077FB1CB059
:1009300070BD00BF0048025800040058004402582F
:1009400008B5FFF7E7FC04F0EDFBFFF791FFFFF7B9
:100950000BFDFFF78DFDFFF7A7FDFFF7EDFDFFF79F
:1009600003FEFFF725FEFFF747FEFFF76FFEFFF7D9
:1009700093FE01224FF480510A4803F051FCFFF727
:100980000FFFA520FFF7C4FE07F096F9064A0021E5
:10099000064807F0CFF9064B186007F0A7F90020CA
:1009A00008BD00BF00100258A0870008E506000837
:1009B0003000002408B50268034B9A4200D008BDFD
:1009C00004F0DEFBFBE700BF001000407047FEE7CD
:1009D000FEE7FEE7FEE7FEE77047000008B50248C5
:1009E00003F02CFF08BD00BF8C02002408B50248AC
:1009F00005F006F808BD00BFBC03002400B583B0B5
:100A00000A4BD3F8F42042F00202C3F8F420D3F8E2
:100A1000F43003F002030193019B00220F216FF0D9
:100A2000010004F021FB03B05DF804FB0044025810
:100A300010B5B8B004460021339134913591369108
:100A40003791C02202A807F0F0FC2268204B9A429E
:100A500001D038B010BD4FF400220023CDE90223AD
:100A6000042304930A230593022306930793089310
:100A7000C023099320230A9302A801F0DFFE18BBCC
:100A8000144BD3F8D82042F02002C3F8D820D3F872
:100A9000D82002F020020092009AD3F8E02042F021
:100AA0000102C3F8E020D3F8E03003F00103019322
:100AB000019B80233393032334930023359333A97D
:100AC000054803F097FAC4E7FFF780FFD8E700BFB7
:100AD0000020024000440258000002582DE9F04175
:100AE0008CB000230793089309930A930B93026831
:100AF000534B9A4202D00CB0BDE8F0810446514BF2
:100B0000D3F8DC2042F00102C3F8DC20D3F8DC206B
:100B100002F001020192019AD3F8E02042F01002A3
:100B2000C3F8E020D3F8E02002F010020292029A0B
:100B3000D3F8E02042F00102C3F8E020D3F8E0202F
:100B400002F001020392039AD3F8E02042F004027B
:100B5000C3F8E020D3F8E02002F004020492049AE3
:100B6000D3F8E02042F00802C3F8E020D3F8E020F8
:100B700002F008020592059AD3F8E02042F0020242
:100B8000C3F8E020D3F8E03003F002030693069B9D
:100B9000702307934FF00208CDF820800D270B97A4
:100BA00007AE3146284803F025FA50230793CDF8C5
:100BB0002080002509950A950B973146234803F0BC
:100BC00019FA4FF470730793CDF8208009950A95B0
:100BD0000B9731461E4803F00DFA08230793CDF812
:100BE000208009950A950B9731461A4803F002FABE
:100BF00080230793CDF8208009950A950B973146FD
:100C0000154803F0F7F91548154B03604B23436073
:100C10008560C5604FF4806303614FF48053436186
:100C20004FF480438361C5610562456203F034FC83
:100C300018B90A4BA3649C635DE7FFF7C7FEF8E7AA
:100C400000000248004402580010025800000258F8
:100C500000080258000C0258000402588C020024BC
:100C60002800024010B5BAB00446002135913691F3
:100C7000379138913991C02204A807F0D6FB236838
:100C8000374A934204D0374A934235D03AB010BD28
:100C900008220023CDE9042304A801F0CFFD40BBC6
:100CA000314CD4F8E03043F00203C4F8E030D4F81B
:100CB000E03003F002030093009B4FF41073359370
:100CC0001223369301233793002338930423399357
:100CD00035A9264803F08EF9D4F8E83043F4001320
:100CE000C4F8E830D4F8E83003F400130193019B12
:100CF000CCE7FFF76BFED3E708220023CDE90423FE
:100D000004A801F09BFD38BB174CD4F8E03043F049
:100D10000203C4F8E030D4F8E03003F00203029399
:100D2000029B4FF44063359312233693002337938D
:100D300038930423399335A90C4803F05BF9D4F8B0
:100D4000E83043F48003C4F8E830D4F8E83003F422
:100D500080030393039B99E7FFF738FED4E700BFB6
:100D6000005400400058004000440258000402585B
:100D7000F0B5BBB0044600213591369137913891DA
:100D80003991C02204A807F050FB2268324B9A42E6
:100D900001D03BB0F0BD4FF480520023CDE90423D5
:100DA00004A801F04BFD002853D12C4BD3F8F020C0
:100DB00042F48052C3F8F020D3F8F02002F48052BD
:100DC0000092009AD3F8E02042F00102C3F8E0203C
:100DD000D3F8E02002F001020192019AD3F8E0205A
:100DE00042F00802C3F8E020D3F8E02002F0080245
:100DF0000292029AD3F8E02042F00202C3F8E02007
:100E0000D3F8E03003F002030393039B20233593D0
:100E1000022736970024379438940526399635AD45
:100E200029460F4803F0E6F8802335933697379428
:100E30003894399629460B4803F0DCF81023359393
:100E400036973794389439962946074803F0D2F8F4
:100E50009FE7FFF7BBFDA8E70030014000440258C0
:100E600000000258000C02580004025810B5BAB035
:100E70000446002135913691379138913991C0223D
:100E800004A807F0D2FA2368364A934204D0364ABF
:100E9000934234D03AB010BD01220023CDE904239F
:100EA00004A801F0CBFC38BB304BD3F8F02042F063
:100EB0001002C3F8F020D3F8F02002F010020092E4
:100EC000009AD3F8E02042F00102C3F8E020D3F802
:100ED000E03003F001030193019B4FF4C0633593AD
:100EE000022336930023379338930723399335A988
:100EF0001F4803F07FF8CDE7FFF768FDD4E7022233
:100F00000023CDE9042304A801F098FC30BB174B63
:100F1000D3F8E82042F40032C3F8E820D3F8E82000
:100F200002F400320292029AD3F8E02042F0010269
:100F3000C3F8E020D3F8E03003F001030393039BF0
:100F40000C233593022336930023379338930723DA
:100F5000399335A9064803F04DF89BE7FFF736FDB6
:100F6000D5E700BF00100140004400400044025893
:100F70000000025810B430300B0A9B0003F00C0341
:100F8000C45801F01F014FF01F0C0CFA01FC24EAB9
:100F90000C0CC2F384628A404CEA0202C2505DF833
:100FA000044B704710B414304B0E9B0003F0040345
:100FB000C458C1F304514FF0070C0CFA01FC24EAA9
:100FC0000C0C8A404CEA0202C2505DF8044B704798
:100FD000C1F313033BB9C1F3846101228A40C369A1
:100FE0001343C361704791FAA1F131B1B1FA81F1B4
:100FF00001F01F0101228A40F1E72021F8E70000FB
:1010000070B582B00023019390F85030012B00F0AE
:10101000148204460D46012380F85030026893681C
:1010200013F0040F09D0436D43F020034365012002
:10103000002384F8503002B070BD0B68002B0ADB2F
:10104000C3F3130100293AD1C3F38463012199400A
:10105000D3690B43D3612A6869682068FFF78AFF68
:101060002068866816F0040600D00126836813F015
:10107000080F00D17EB32068816811F0010140F0B3
:10108000D8812B68EE68D0F8C020C3F3130C22EA95
:101090000C0206F0180C954E26FA0CF63340C3F3FA
:1010A00013031343C0F8C030EA68914B9A4200F032
:1010B000A1802B68002BC0F243810020B8E793FA8F
:1010C000A3F333B1B3FA83F303F01F030121994073
:1010D000BEE72023F8E7AA682968FFF763FF854B7E
:1010E0001B6803F07043B3F1805F0BD02268D368B4
:1010F00013F0100F3BD16B69D268C2F38202520029
:10110000934006E06B692268D268C2F38202520003
:1011100093402969042938D02268286802F1600CBC
:101120005CF8212002F0004200F0F8400343134332
:101130004CF82130236828696A7E012A1FD0324684
:10114000603353F8201021F000410A4343F8202077
:10115000206829692B7E012B14D0026922F4F04209
:1011600001F01F0306FA03F31343036183E76B697E
:10117000D268920802F0040252009340C9E74FF08F
:101180000042DDE74FF40066E7E72268136E03F0E4
:10119000F8432968B3EB816F1DD02268536E03F0CA
:1011A000F8432968B3EB816F1AD02268936E03F07D
:1011B000F8432968B3EB816F17D02268D36E03F030
:1011C000F8432968B3EB816F7FF455AFD36E23F0FA
:1011D0000043D3664FE7136E23F000431366DCE74A
:1011E000536E23F000435366DFE7936E23F0004312
:1011F0009366E2E72068404B984205D03F4B984207
:101200002BD0FFF7E5FE54E72B683D4A93424AD0C6
:101210003C4A934249D03C4A934248D03B4A93428D
:1012200047D002F186621032934244D0384A93424A
:1012300043D002F1042202F5401293423FD002F162
:10124000866202F5006293423BD0324A93423AD022
:10125000314A9342D5D13149D3E72B68284A93428A
:1012600033D0284A934232D0274A934231D0274A7A
:10127000934230D002F18662103293422DD0244A3C
:1012800093422CD002F1042202F54012934228D05E
:1012900002F1866202F50062934224D01E4A934214
:1012A000AFD11E49ADE70121ABE71D49A9E71D49B3
:1012B000A7E71D49A5E71D49A3E71D49A1E71D496A
:1012C0009FE71D499DE71D499BE7012199E71449C7
:1012D00097E7144995E7144993E7144991E71449AE
:1012E0008FE714498DE714498BE700BFFFFF0F001C
:1012F0000000FF470010005C002002400021024077
:1013000002003004040060080800900C1000C010B7
:101310000004002A000021430000844B0000B84F65
:10132000400020198000501D000180210002B025DE
:101330000008302E00106032002090360000524726
:1013400022683F493F48824218BF8A420CBF0121B0
:10135000002118D13C4EB56805F0E07CA9B13849B0
:10136000886810F0010000D001203649896811F02A
:10137000010100D0012101430CD0636D43F0200333
:101380006365012054E6314EE5E73149896811F083
:10139000010FF2D12F498B4207D02F498B4226D023
:1013A0002E498B4234D0002042E615F4000FF4D1D0
:1013B000274B9A4201D000203AE64CF40003B26871
:1013C00022F0E0721343B360254B1B689B09254A4A
:1013D000A2FB03239B0901335B00019302E0019B05
:1013E000013B0193019B002BF9D1002020E615F071
:1013F000807FD5D1164B9A4201D0002018E64CF0E0
:101400008073B26822F0E0721343B36000200FE6ED
:1014100015F4800F0FD10E4B9A4201D0002007E641
:101420004CF48003B26822F0E0721343B3600020F2
:10143000FEE50020FCE50020FAE50220FBE500BF08
:1014400000200240002102400023024000630258B5
:1014500000600258000084CB000052C70000B8CFE3
:101460000C000024632D3E0538B5044603684E4940
:101470004E4A934218BF8B4226D14D4B9B6803F4D2
:101480004033003B18BF012343B301F05FF805462A
:101490006368B3F5003F05D0B3F5403F1CD0B3F50A
:1014A000803F02D11B0CB5FBF3F503F08FFE41F238
:1014B0000303984253D83F4B9D424AD92268936810
:1014C00043F48073936038BD3B4B9B6803F4403317
:1014D000003B18BF0123D7E78508E6E74FF400205B
:1014E000002102F019FA05466368B3F5101F2CD0ED
:1014F00021D8B3F5E01F26D004D9B3F5001FD4D10D
:101500004509D2E7B3F5801F10D009D8B3F5002FF5
:101510000CD0B3F5402F09D0B3F5802F06D0C4E727
:10152000B3F5A01F02D0B3F5C01FBED19B0C5B006A
:10153000B5FBF3F5B9E7B3F5201F08D0B3F5301FBD
:10154000B3D1050AB1E70509AFE78509ADE7C509DC
:10155000ABE72268936823F480739360B3E7174B7B
:101560009D4205D82268936823F440739360AAE7EC
:10157000134B9D4207D82268936823F4407343F4C9
:10158000807393609FE70F4B9D4207D82268936852
:1015900023F4407343F40073936094E722689368E4
:1015A00043F4407393608EE7002002400021024024
:1015B00000230240002D31010063025821BCBE000F
:1015C00041787D0181F0FA0230B583B000230193A8
:1015D000002800F008810446436DEBB123689A6847
:1015E00012F0005F03D09968804A0A409A6023682D
:1015F0009A6812F0805F1CD199687D4A0A4042F0D7
:1016000080529A607B4B1B689B097B4AA2FB032399
:101610009B090133019309E0FFF70AFA0023A36550
:1016200084F85030DAE7019B013B0193019B002BCA
:10163000F9D12268936813F0805F40F09780636D62
:1016400043F010036365A36D43F00103A365012517
:10165000936813F0040300D00123616D11F0100FA3
:1016600040F0B980002B40F0B680636D23F48173A5
:1016700043F002036365936813F0010F1ED15F49C5
:101680005F4B9A4218BF8A420CBF012200226FD1E1
:10169000896811F0010100D00121594B9B6813F0BA
:1016A000010300D001230B4308D1002A66D055491D
:1016B00063688A6822F47C1213438B6003F086FD12
:1016C00041F20303984202D9A368102B58D0627DDF
:1016D000236B43EA4233A2681343227F43EA024367
:1016E000227F012A57D0626A22B102F47872A16A7D
:1016F0000A4313432168C868434A02401A43CA6038
:101700002268936813F0040300D00123916811F05C
:10171000080F1CD1DBB9217DE36A43EA8131D0682F
:101720003A4B03400B43D36094F83830012B37D049
:101730002268136923F0010313612268136923F0FF
:101740007043616B0B4313612046FFF78DFEE36826
:10175000012B37D02268136B23F00F031363636DE3
:1017600023F0030343F00103636539E000256FE7CD
:10177000274B9B6813F0010FA0D196E7254997E707
:10178000617D226B42EA41321343227F43EA0243E6
:1017900043F00C03A4E7226A013A43EA4243A2E77A
:1017A000206802691C4B1340E26B511E226C42EA16
:1017B0000142616C0A43A16C0A43134343F00103E5
:1017C0000361BAE721680B6B23F00F03A269013AAA
:1017D00013430B63C3E7636D43F010036365012597
:1017E000284603B030BD0125FAE700BFC0FFFF5F08
:1017F000C0FFFF6F0C000024632D3E050020024057
:10180000002102400023024003C0F0FFFCBFFFFFA5
:1018100000600258006302581EF800FC90F8502047
:10182000012A00F0968030B49AB00346012280F875
:1018300050200022169217920068474A904236D0F4
:1018400000220192019A002A35D0926812F0040217
:1018500000D00122846814F0040F6BD1002A69D1F2
:101860003D4C3E4A904218BFA0422DD102F5007275
:101870000868002839D0906820F440404C68204324
:1018800090601868344D354CA04218BFA8421DD155
:10189000AC6814F0010400D001243048806810F0D6
:1018A000010000D00120204315D0002047E002F5C0
:1018B00080720192C6E75A6D42F020025A650022FA
:1018C00083F8502001203DE0254AD1E72548806873
:1018D00010F0010F39D19468234820400C688968C2
:1018E000214308439060002029E0916821F44041A1
:1018F00091601968184C1948814218BFA1420ED155
:10190000A06810F0010000D001201449896811F08E
:10191000010100D00121014306D000200FE0114950
:10192000896811F0010F12D190680F490140916050
:10193000002004E05A6D42F020025A650120002286
:1019400083F850201AB030BC70470020F7E7002021
:10195000F5E70220704700BF00200240002102404E
:101960000063025800600258E0F0FFFF002800F01A
:10197000398338B50446036813F0010F25D0944A23
:10198000136903F03803926A102B15D0182B0FD06F
:101990006368B3F5803F3FD0002B53D18C4B1A685E
:1019A00022F480321A601A6822F480221A6038E029
:1019B00002F00302022AEBD1854B1B6813F4003FAF
:1019C00003D06368002B00F00F83236813F0020F2D
:1019D00000F0A1807E4A1369926A13F038035AD04E
:1019E000182B55D0E368002B00F0DE8078490A6898
:1019F00022F0190213430B6003F0CEFB0546744B33
:101A00001B6813F0040F40F0AD8003F0C5FB401BD2
:101A10000228F4D90320EEE26D4A136843F48033C0
:101A2000136063682BB303F0B7FB0546684B1B6874
:101A300013F4003FC9D103F0AFFB401B6428F5D974
:101A40000320D8E2B3F5A02F09D0614B1A6822F425
:101A500080321A601A6822F480221A60E1E75C4B37
:101A60001A6842F480221A601A6842F480321A60BE
:101A7000D7E703F091FB0546554B1B6813F4003F75
:101A8000A3D003F089FB401B6428F5D90320B2E200
:101A900012F0030FA6D14E4B1B6813F0040F03D0B6
:101AA000E368002B00F0A282494A136823F019036F
:101AB000E1680B43136003F06FFB0546444B1B6862
:101AC00013F0040F06D103F067FB401B0228F5D981
:101AD000032090E203F07AFB41F20303984212D80C
:101AE0002269402A07D03A494B6823F47C3343EA01
:101AF00002334B600FE0364A536823F47C3343F4DF
:101B00000033536007E0324A536823F0FE432169F3
:101B100043EA01635360236813F0100F00F08880DC
:101B20002B4A136903F03803926A082B56D0182BFE
:101B300050D0E369002B00F0B880254A136843F0C9
:101B40008003136003F028FB0546214B1B6813F448
:101B5000807F40F0888003F01FFB401B0228F4D9EF
:101B6000032048E203F032FB41F20303984212D80B
:101B70002269402A07D016494B6823F47C3343EA94
:101B800002334B60C7E7124A536823F47C3343F4B3
:101B900000335360BFE70E4A536823F0FE432169C8
:101BA00043EA01635360B6E7094A136823F001036F
:101BB000136003F0F1FA0546054B1B6813F0040FA0
:101BC000A9D003F0E9FA401B0228F5D9032012E25C
:101BD0000044025802F00302012AAAD1A14B1B685B
:101BE00013F4807F03D0E369802B40F0018203F07F
:101BF000EDFA41F20303984212D8226A202A07D054
:101C000098494B6823F0F84343EA82634B600FE046
:101C1000944A536823F0F84343F08043536007E04D
:101C2000904AD36823F07C53216A43EA0163D3606E
:101C3000236813F0080F60D06369002B49D0894AEC
:101C4000536F43F00103536703F0A6FA0546854B33
:101C50005B6F13F0020F50D103F09EFA401B022875
:101C6000F5D90320C7E103F0B1FA41F2030398422A
:101C700012D8226A202A07D07A494B6823F0F84309
:101C800043EA82634B60D3E7764A536823F0F84314
:101C900043F080435360CBE7724AD36823F07C5310
:101CA000216A43EA0163D360C2E76E4A136823F0F6
:101CB0008003136003F070FA05466A4B1B6813F447
:101CC000807FB5D003F068FA401B0228F5D90320C5
:101CD00091E1644A536F23F00103536703F05CFA08
:101CE0000546604B5B6F13F0020F06D003F054FA09
:101CF000401B0228F5D903207DE1236813F0200F53
:101D000029D0A3699BB1574A136843F480531360E9
:101D100003F042FA0546534B1B6813F4005F1AD1D7
:101D200003F03AFA401B0228F5D9032063E14D4A3B
:101D3000136823F48053136003F02EFA0546494BD1
:101D40001B6813F4005F06D003F026FA401B02283C
:101D5000F5D903204FE1236813F0040F21D1636A02
:101D6000002B00F047813F4A126902F03802182A1E
:101D700000F0EE80022B79D03A4A136823F080738A
:101D8000136003F009FA0446364B1B6813F0007F1A
:101D900000F0DC8003F000FA001B0228F4D90320D5
:101DA00029E1314A136843F48073136003F0F4F9B6
:101DB00005462D4B1B6813F4807F06D103F0ECF928
:101DC000401B6428F5D9032015E1A368012B0AD034
:101DD0000BBB244B1A6F22F001021A671A6F22F014
:101DE00004021A6704E01F4A136F43F001031367EC
:101DF000A36833B303F0D0F905461A4B1B6F13F0F9
:101E0000020FACD103F0C8F9401B41F2883398426D
:101E1000F3D90320EFE0052B09D0124B1A6F22F003
:101E200001021A671A6F22F004021A67E0E70D4BED
:101E30001A6F42F004021A671A6F42F001021A6721
:101E4000D6E703F0A9F90546064B1B6F13F0020F06
:101E500085D003F0A1F9401B41F288339842F3D9B1
:101E60000320C8E00044025800480258694A136839
:101E700023F08073136003F08FF90546654B1B68F0
:101E800013F0007F06D003F087F9401B0228F5D934
:101E90000320B0E05F4B996A5F4A0A40A16AE06A9A
:101EA00041EA00110A439A62226B013AC2F3080226
:101EB000616B0139490289B20A43A16B01390904F6
:101EC00001F4FE010A43E16B0139090601F0FE410C
:101ED0000A431A63DA6A22F00102DA625A6B6FF37C
:101EE000CF02A16C42EAC1025A63DA6A22F00C0204
:101EF000216C0A43DA62DA6A22F00202616C0A4358
:101F0000DA62DA6A42F48032DA62DA6A42F4003281
:101F1000DA62DA6A42F48022DA62DA6A42F00102B4
:101F2000DA621A6842F080721A6003F035F90446EA
:101F3000384B1B6813F0007F06D103F02DF9001B0E
:101F40000228F5D9032056E0002054E0002052E09A
:101F5000304A916A106B012B4ED001F00303A26A44
:101F600093424BD1C1F30511E36A994248D1C0F3C2
:101F70000802236B013B9A4244D1C0F34622636BB3
:101F8000013B9A4240D1C0F30642A36B013B9A4207
:101F90003CD1C0F30660E36B013B984238D11D4B46
:101FA0005B6BC3F3CC03A26C9A4201D1002022E008
:101FB000184AD36A23F00103D36203F0EDF8054613
:101FC00003F0EAF8A842FBD0124A536B6FF3CF0339
:101FD000A16C43EAC1035363D36A43F00103D362A4
:101FE000002008E001207047012004E0012002E009
:101FF000012000E0002038BD0120FCE70120FAE7C5
:102000000120F8E70120F6E70120F4E70120F2E7DC
:102010000120F0E7004402580CFCFFFF70B588B0C7
:102020000C46154610BB234ED6F8E03043F00103B2
:10203000C6F8E030D6F8E03003F001030193019BCD
:102040004FF4807303930223049303230693002326
:102050000593079303A9184801F0CCFF336923F0D7
:10206000FE7325431D43356108B070BD114ED6F88F
:10207000E03043F00403C6F8E030D6F8E03003F077
:1020800004030293029B4FF400730393022304930F
:102090000323069300230593079303A9074801F040
:1020A000A9FF336923F07E4344EAC5141C4334611D
:1020B000DAE700BF00440258000002580008025846
:1020C000754B1B6903F03803102B00F0DE80182BD2
:1020D0000FD0002B40F0DB806F4B1B6813F0200FFC
:1020E00000F0D7806C4B1B68C3F3C1036B48D8402A
:1020F000704710B4684B9A6A02F003029C6AC4F3FA
:102100000510D96A01F001015B6BC3F3CC0301FB3D
:1021100003F307EE903AF8EE677A14F47C7F77D0F9
:10212000012A4AD0022A76D0002A40F091805A4BE8
:102130001B6813F0200F23D057490A68C2F3C1026D
:10214000564BD34007EE103AF8EE476A07EE100AF6
:10215000B8EE476A86EE867A0B6BC3F3080306EE89
:10216000903AF8EE666A9FED4E6A67EE867A76EEF2
:10217000A77AF7EE006A77EEA67A27EE277A38E09C
:1021800007EE100AF8EE476A9FED466A86EE267A59
:10219000414B1B6BC3F3080306EE903AF8EE666AF8
:1021A0009FED3F6A67EE867A76EEA77AF7EE006AD1
:1021B00077EEA67A27EE277A1BE007EE100AF8EEF4
:1021C000476A9FED396A86EE267A334B1B6BC3F361
:1021D000080306EE903AF8EE666A9FED316A67EE04
:1021E000867A76EEA77AF7EE006A77EEA67A27EE81
:1021F000277A294B1B6BC3F34623013307EE903A32
:10220000F8EE677AC7EE276AFCEEE67A17EE900AD8
:102210005DF8044B704707EE100AF8EE476A9FED31
:10222000236A86EE267A1C4B1B6BC3F3080306EE6B
:10223000903AF8EE666A9FED1A6A67EE867A76EE55
:10224000A77AF7EE006A77EEA67A27EE277AD0E72C
:1022500007EE100AF8EE476A9FED136A86EE267ABB
:102260000D4B1B6BC3F3080306EE903AF8EE666A5B
:102270009FED0B6A67EE867A76EEA77AF7EE006A34
:1022800077EEA67A27EE277AB3E709487047094820
:1022900070470248704700BF004402580090D003C6
:1022A000000000390024744C0024744A0024F44ACD
:1022B00000127A0000093D00002800F0328170B55C
:1022C0000D4604469B4B1B6803F00F038B420BD259
:1022D000984A136823F00F030B431360136803F04D
:1022E0000F038B4240F01F81236813F0040F0CD0C2
:1022F0002269914B9B6903F070039A4205D98E497C
:102300008B6923F070031A438A61236813F0080F66
:102310000CD06269884BDB6903F070039A4205D9DF
:102320008549CB6923F070031A43CA61236813F00F
:10233000100F0CD0A269804BDB6903F4E0639A4272
:1023400005D97D49CB6923F4E0631A43CA61236848
:1023500013F0200F0CD0E269774B1B6A03F0700377
:102360009A4205D974490B6A23F070031A430A6232
:10237000236813F0020F0CD0E2686F4B9B6903F0E7
:102380000F039A4205D96C498B6923F00F031A4356
:102390008A61236813F0010F41D0674A936923F4DF
:1023A0007063A1680B4393616368022B0AD0032B0F
:1023B00027D0012B2CD0604A126812F0040F06D1EE
:1023C0000120ADE0126812F4003F00F0AE805A49DF
:1023D0000A6922F0070213430B6102F0DDFE064694
:1023E000554B1B6903F038036268B3EBC20F16D07C
:1023F00002F0D2FE801B41F288339842F0D90320CC
:102400008EE04D4A126812F0007FE0D1012087E093
:10241000494A126812F4807FD9D1012080E02368F4
:1024200013F0020F0CD0E268434B9B6903F00F03DB
:102430009A4205D240498B6923F00F031A438A61FF
:102440003C4B1B6803F00F03AB420AD9394A1368AF
:1024500023F00F032B431360136803F00F03AB4209
:1024600065D1236813F0040F0CD02269324B9B69AD
:1024700003F070039A4205D22F498B6923F0700351
:102480001A438A61236813F0080F0CD062692A4B43
:10249000DB6903F070039A4205D22749CB6923F028
:1024A00070031A43CA61236813F0100F0CD0A2699D
:1024B000214BDB6903F4E0639A4205D21E49CB69E4
:1024C00023F4E0631A43CA61236813F0200F0CD091
:1024D000E269194B1B6A03F070039A4205D2164950
:1024E0000B6A23F070031A430A62FFF7E9FD1249F1
:1024F0008B69C3F30323114AD35C03F01F03D84055
:102500008B6903F00F03D35C03F01F0320FA03F37E
:102510000B4A13600B4B18600B4B186804F0DEF984
:1025200070BD012070470120FAE70120F8E7012083
:10253000F6E700BF0020005200440258F48700086C
:10254000080000240C0000240400002408B5FFF754
:10255000B7FD0B4A9369C3F303230A49CB5C03F02D
:102560001F0320FA03F3926902F00F02885C00F067
:102570001F0023FA00F0044A1060044A136008BDEB
:1025800000440258F4870008080000240C000024CE
:1025900008B5FFF7DBFF054BDB69C3F30213044A01
:1025A000D35C03F01F03D84008BD00BF00440258AD
:1025B000F487000808B5FFF7C9FF054BDB69C3F3D3
:1025C0000223044AD35C03F01F03D84008BD00BFB8
:1025D00000440258F48700083F230360114B1A6936
:1025E00002F0070242609A6902F4706282609A699E
:1025F00002F00F02C2609A6902F070020261DA69A9
:1026000002F070024261DA6902F4E06282611B6AE0
:1026100003F07003C361044B1B6803F00F030B60EE
:10262000704700BF0044025800200052404B9B6A94
:1026300003F00303032B79D070B505460E463C4AE0
:10264000136823F08063136002F0A6FD0446384B44
:102650001B6813F0006F06D002F09EFD031B022BD7
:10266000F5D9032070BD324B9A6A22F47C32296876
:1026700042EA01329A626A68013AC2F30802A96822
:102680000139490289B20A43E9680139090401F4B0
:10269000FE010A4329690139090601F0FE410A4396
:1026A0009A63DA6A22F0C00269690A43DA62DA6A76
:1026B00022F02002A9690A43DA62DA6A22F01002E3
:1026C000DA62DA6B6FF3CF02E96942EAC102DA63D8
:1026D000DA6A42F01002DA62C6B91A46DB6A43F4DB
:1026E0000023D362124A136843F08063136002F040
:1026F00053FD04460E4B1B6813F0006F14D102F01B
:102700004BFD001B0228F5D90320ABE7012E05D0B5
:10271000074AD36A43F40013D362E3E7044AD36A57
:1027200043F48013D362DDE700209BE7012070476C
:1027300000440258404B9B6A03F00303032B79D0FB
:1027400070B505460E463C4A136823F0805313606B
:1027500002F022FD0446384B1B6813F0005F06D0E0
:1027600002F01AFD031B022BF5D9032070BD324B7A
:102770009A6A22F07C72296842EA01529A626A6877
:10278000013AC2F30802A9680139490289B20A4331
:10279000E9680139090401F4FE010A432969013994
:1027A000090601F0FE410A431A64DA6A22F4406223
:1027B00069690A43DA62DA6A22F40072A9690A4393
:1027C000DA62DA6A22F48072DA625A6C6FF3CF024C
:1027D000E96942EAC1025A64DA6A42F48072DA6252
:1027E000C6B91A46DB6A43F48003D362124A1368FF
:1027F00043F08053136002F0CFFC04460E4B1B687D
:1028000013F0005F14D102F0C7FC001B0228F5D9B9
:102810000320ABE7012E05D0074AD36A43F080734B
:10282000D362E3E7044AD36A43F40003D362DDE7EB
:1028300000209BE70120704700440258F8B5044689
:10284000036813F0006F30D0836EB3F5001F26D0FD
:102850000ED8ABB1B3F5801F07D102210830FFF7C6
:10286000E5FE054695B12E4621E0012635461EE0DF
:10287000B3F5401F01D1002508E00126354616E0DA
:102880009A4AD36A43F40033D3620025974A136D02
:1028900023F44013A16E0B431365002607E00221C9
:1028A0002830FFF747FF0546DCE70026354623685A
:1028B00013F4807F14D0A36D042B31D8DFE803F02C
:1028C000032229080800894AD36A43F40033D362FB
:1028D0004DBB864A136D23F00703A16D0B431365AF
:1028E000236813F4007F3FD0E36D802B2ED01FD8D8
:1028F00033B3402B19D1002104F10800FFF796FEF5
:10290000054629E0002104F10800FFF78FFE054687
:10291000DEE7002104F12800FFF70CFF0546D7E7AA
:1029200001263546DCE72E46DAE7012635461BE070
:10293000C02B11D0B3F5807F0ED00126354613E0B1
:102940006A4AD36A43F40033D36205E0002104F1FC
:102950002800FFF7EFFE0546DDB9644A136D23F446
:10296000E073E16D0B431365236813F4806F33D07C
:10297000D4F8A830B3F5800F1FD00FD8BBB1B3F592
:10298000001F08D1002104F10800FFF74FFE0546A3
:1029900019E02E46E8E7012635461DE0B3F5C00FE5
:1029A00011D0B3F5000F0ED00126354614E04F4A82
:1029B000D36A43F40033D36205E0002104F1280018
:1029C000FFF7B8FE0546E5B9484A936D23F4600366
:1029D000D4F8A8100B439365236813F4006F34D028
:1029E000D4F8AC30B3F1007F1FD00FD8BBB1B3F136
:1029F000807F08D1002104F10800FFF717FE05468B
:102A000019E02E46E8E7012635461EE0B3F1407F87
:102A100011D0B3F1806F0ED00126354615E0334A50
:102A2000D36A43F40033D36205E0002104F12800A7
:102A3000FFF780FE0546002D33D12C4A936D23F01D
:102A4000E063D4F8AC100B439365236813F0007F68
:102A500013D0E36C202B2ED028D833B1102B22D1E9
:102A6000224AD36A43F40033D3625DBB1F4AD36C5E
:102A700023F03003E16C0B43D364236813F4805FCD
:102A800046D0236EB3F5005F32D020D843B3B3F500
:102A9000805F19D1002104F10800FFF7C7FD05464A
:102AA0002CE02E46D1E701263546E6E7302BDCD078
:102AB00001263546E1E7022104F10800FFF7B6FDE3
:102AC0000546D2E72E46D8E70126354620E0B3F585
:102AD000405F13D0B3F5804F10D00126354617E084
:102AE000024AD36A43F40033D36207E00044025839
:102AF000002104F12800FFF71DFE05463DB9704A8C
:102B0000136D23F4E043216E0B43136500E02E4662
:102B1000236813F4005F17D0636EB3F5003F4FD006
:102B200042D843B1B3F5803F3BD1012104F1080005
:102B3000FFF77CFD0546002D49D1614A136D23F452
:102B4000E023616E0B431365236813F4804F19D0A3
:102B5000D4F8B030B3F1005F4AD03DD843B1B3F1FF
:102B6000805F36D1012104F10800FFF75FFD0546C3
:102B7000002D44D1524A936D23F0E043D4F8B010B5
:102B80000B439365236813F4004F47D0236FB3F1D1
:102B9000805F36D0B3F1005F4BD0BBB30126354622
:102BA0003CE001263546CFE7B3F5802FC3D0B3F51F
:102BB000A02FC0D0B3F5403FBDD001263546C3E7B6
:102BC000012104F12800FFF7B5FD0546B3E72E46C5
:102BD000BAE701263546D5E7B3F1804FC8D0B3F147
:102BE000A04FC5D0B3F1405FC2D001263546C9E73A
:102BF000012104F12800FFF79DFD0546B8E72E46A8
:102C0000C0E72F4AD36A43F40033D362C5B92C4AD4
:102C1000136D23F04053216F0B431365236813F0AA
:102C2000807F1CD0A36C032B44D8DFE803F0100B8B
:102C30003C10012104F10800FFF7F8FC0546E5E728
:102C40002E46EBE71E4AD36A43F40033D362A5BB9A
:102C50001B4AD36C23F00303A16C0B43D36423689A
:102C600013F4800F2ED1236813F0010F00F0A6801B
:102C7000E36F282B00F2A080DFE803F08E9E9E9E7B
:102C80009E9E9E9E889E9E9E9E9E9E9E979E9E9E81
:102C90009E9E9E9E8E9E9E9E9E9E9E9E8E9E9E9E74
:102CA0009E9E9E9E8E00022104F10800FFF7BEFC4E
:102CB0000546CCE701263546D1E72E46CFE700BFD3
:102CC000004402585A4A136843F48073136002F0B8
:102CD00063FA0746564B1B6813F4807F05D102F058
:102CE0005BFAC01B6428F5D90325002D4AD1514B4E
:102CF0001B6FD4F8B420534013F4407F0CD04D4BDD
:102D00001A6F22F44072196F41F480311967196FFC
:102D100021F4803119671A67D4F8B430B3F5807F95
:102D200015D08DBBD4F8B43003F44072B2F5407FB7
:102D30001ED0404A136923F47C5313613D490B6F45
:102D4000D4F8B420C2F30B0213430B678BE702F0F5
:102D500023FA0746374B1B6F13F0020FE1D102F045
:102D60001BFAC01B41F288339842F3D90325D8E7F8
:102D70003048026922F47C522F4901EA13131343AD
:102D80000361DBE72E466EE72E466CE7012104F176
:102D90000800FFF74BFC0546E5B9264A536D23F0C2
:102DA0003803E16F0B43536508E0012104F128006B
:102DB000FFF7C0FC0546EFE701263546236813F010
:102DC000020F17D0A36F052B2CD8DFE803F00B05FB
:102DD000240B0B0B2E46F1E7012104F10800FFF74D
:102DE00025FC05460DBB134A536D23F00703A16F65
:102DF0000B435365236813F0040F30D0D4F894309C
:102E0000052B00F20F81DFE813F01F001900060107
:102E10001F001F001F00012104F12800FFF78AFC9A
:102E20000546DFE701263546E4E72E46E2E700BF28
:102E30000048025800440258CFFFFF00012104F16E
:102E40000800FFF7F3FB0546002D40F0EE80B64A80
:102E5000936D23F00703D4F894100B439365236814
:102E600013F0200F1DD0D4F89030B3F1005F00F0C4
:102E7000F08000F2DF804BB1B3F1805F40F0D7808B
:102E8000002104F10800FFF7D1FB0546002D40F0BA
:102E9000E780A54A536D23F0E043D4F890100B432C
:102EA0005365236813F0400F1DD0D4F89C30B3F560
:102EB000006F00F0E98000F2D8804BB1B3F5806F6D
:102EC00040F0D080002104F10800FFF7AFFB054679
:102ED000002D40F0E080944A936D23F4E053D4F841
:102EE0009C100B439365236813F0800F1DD0D4F81A
:102EF000A030B3F5804F00F0E28000F2D1804BB1FA
:102F0000B3F5005F40F0C980002104F10800FFF72D
:102F10008DFB0546002D40F0D980834A936D23F444
:102F20006043D4F8A0100B439365236813F0080F97
:102F30000DD0D4F88430B3F5805F00F0C9807A4AB0
:102F4000536D23F44053D4F884100B435365236826
:102F500013F0100F0DD0D4F89830B3F5807F00F047
:102F6000C180714A936D23F44073D4F898100B43D9
:102F70009365236813F4002F1CD0D4F8A430B3F564
:102F8000803F00F0B980B3F5003F08D0002B40F03F
:102F9000BA80002104F10800FFF748FB0546002D28
:102FA00040F0B480604A936D23F44033D4F8A41009
:102FB0000B439365236813F4802F1CD0D4F888301A
:102FC000B3F5001F00F0A480B3F5401F08D0B3F59F
:102FD000801F40F0A480544AD36A43F40033D36284
:102FE000002D40F09F80504A536D23F44013D4F8D5
:102FF00088100B435365236813F4803F00F0AC80C6
:10300000236D002B00F09280B3F5803F00F09C8090
:1030100001263546A0E0012104F12800FFF78AFBD4
:10302000054611E70126354619E72E4617E7012622
:10303000354636E7B3F1804F3FF428AFB3F1A04FE8
:103040003FF424AFB3F1405F3FF420AF0126354693
:1030500027E7022104F12800FFF76CFB054615E77E
:103060002E461EE7012635463DE7B3F5805F3FF467
:103070002FAFB3F5A05F3FF42BAFB3F5406F3FF434
:1030800027AF012635462EE7022104F12800FFF77D
:1030900051FB05461CE72E4625E70126354644E749
:1030A000B3F5004F3FF436AFB3F5204F3FF432AFE6
:1030B000B3F5C04F3FF42EAF0126354635E7022168
:1030C00004F12800FFF736FB054623E72E462CE7E0
:1030D000022104F12800FFF72DFB00283FF42FAF59
:1030E00001262CE7022104F12800FFF723FB00282A
:1030F0003FF437AF012634E7022104F12800FFF73F
:1031000019FB05464BE70126354653E72E4651E7A6
:10311000012104F12800FFF70DFB054660E70126B9
:10312000354668E72E4666E700440258704AD36A7F
:1031300043F40033D36275B96D4AD36C23F4803302
:10314000216D0B43D36407E0022104F10800FFF76F
:103150006DFA0546EFE72E46236813F0005F11D1A4
:10316000236813F4003F28D0D4F88030B3F5807F73
:1031700014D010D9B3F5007F15D0B3F5407F12D02D
:1031800001261AE0022104F12800FFF7D3FA0028F3
:10319000E6D00126E4E733B101260EE0544AD36AB3
:1031A00043F40033D362002D69D1514A536D23F4A7
:1031B0004073D4F880100B435365236813F4801FC9
:1031C00006D04B4A136D23F00043616F0B43136528
:1031D000236813F0805F07D0454A136923F48043C6
:1031E000D4F8B8100B431361236813F4001F06D002
:1031F0003F4A136D23F08073E16E0B431365236820
:1032000013F0804F09D03A4B1A6922F400421A6138
:103210001A69D4F8BC100A431A612368002B06DA35
:10322000334AD36C23F04053616D0B43D36423685E
:1032300013F4000F07D02E4A536D23F44003D4F843
:103240008C100B435365636813F0010F19D1636849
:1032500013F0020F1ED1636813F0040F23D16368CB
:1032600013F0080F28D1636813F0100F2DD1636895
:1032700013F0200F32D106B101263046F8BD2E469C
:103280009BE7002104F10800FFF7D0F90028DED009
:103290000646DCE7012104F10800FFF7C7F9002822
:1032A000D9D00646D7E7022104F10800FFF7BEF99E
:1032B0000028D4D00646D2E7002104F12800FFF709
:1032C00039FA0028CFD00646CDE7012104F12800C5
:1032D000FFF730FA0028CAD00646C8E7022104F1F9
:1032E0002800FFF727FA0028C5D00126C5E700BF50
:1032F0000044025808B5FFF729F9054B1B6AC3F3D0
:103300000213044AD35C03F01F03D84008BD00BF7A
:1033100000440258F487000810B4794B9A6A9C6AFA
:10332000C4F3053CD96AC1F30011DB6BC3F3CC03D2
:1033300001FB03F314F47C3F00F0DD8002F0030294
:1033400007EE903AF8EE677A012A4BD0022A00F095
:103350009880002A40F0B280694B1B6813F0200F60
:1033600023D067490A68C2F3C102664BD34007EE17
:10337000103AF8EE476A07EE10CAB8EE476A86EED2
:10338000867A8B6BC3F3080306EE903AF8EE666A12
:103390009FED5D6A67EE867A76EEA77AF7EE006AB1
:1033A00077EEA67A27EE277A38E007EE10CAF8EE15
:1033B000476A9FED566A86EE267A514B9B6BC3F3A4
:1033C000080306EE903AF8EE666A9FED4F6A67EEE4
:1033D000867A76EEA77AF7EE006A77EEA67A27EE7F
:1033E000277A1BE007EE10CAF8EE476A9FED486A9D
:1033F00086EE267A424B9B6BC3F3080306EE903AA7
:10340000F8EE666A9FED406A67EE867A76EEA77AF6
:10341000F7EE006A77EEA67A27EE277A384A936BA2
:10342000C3F3462307EE903AF8EE677AF7EE006AA8
:1034300077EEA67A87EE276ABCEEC66A80ED006A50
:10344000936BC3F3064307EE903AF8EE677A77EE94
:10345000A67A87EE276ABCEEC66A80ED016A936B96
:10346000C3F3066307EE903AF8EE677A77EEA67A32
:10347000C7EE276AFCEEE66AC0ED026A5DF8044B0F
:10348000704707EE10CAF8EE476A9FED226A86EE93
:10349000267A1B4B9B6BC3F3080306EE903AF8EEBB
:1034A000666A9FED196A67EE867A76EEA77AF7EE7E
:1034B000006A77EEA67A27EE277AAFE707EE10CA02
:1034C000F8EE476A9FED126A86EE267A0C4B9B6BEC
:1034D000C3F3080306EE903AF8EE666A9FED0A6AB7
:1034E00067EE867A76EEA77AF7EE006A77EEA67A2E
:1034F00027EE277A92E70023036043608360BDE7ED
:10350000004402580090D003000000390024744C9D
:103510000024744A0024F44A10B4794B9A6A9C6AD5
:10352000C4F3055CD96AC1F300215B6CC3F3CC031F
:1035300001FB03F314F07C7F00F0DD8002F0030256
:1035400007EE903AF8EE677A012A4BD0022A00F093
:103550009880002A40F0B280694B1B6813F0200F5E
:1035600023D067490A68C2F3C102664BD34007EE15
:10357000103AF8EE476A07EE10CAB8EE476A86EED0
:10358000867A0B6CC3F3080306EE903AF8EE666A8F
:103590009FED5D6A67EE867A76EEA77AF7EE006AAF
:1035A00077EEA67A27EE277A38E007EE10CAF8EE13
:1035B000476A9FED566A86EE267A514B1B6CC3F321
:1035C000080306EE903AF8EE666A9FED4F6A67EEE2
:1035D000867A76EEA77AF7EE006A77EEA67A27EE7D
:1035E000277A1BE007EE10CAF8EE476A9FED486A9B
:1035F00086EE267A424B1B6CC3F3080306EE903A24
:10360000F8EE666A9FED406A67EE867A76EEA77AF4
:10361000F7EE006A77EEA67A27EE277A384A136C1F
:10362000C3F3462307EE903AF8EE677AF7EE006AA6
:1036300077EEA67A87EE276ABCEEC66A80ED006A4E
:10364000136CC3F3064307EE903AF8EE677A77EE11
:10365000A67A87EE276ABCEEC66A80ED016A136C13
:10366000C3F3066307EE903AF8EE677A77EEA67A30
:10367000C7EE276AFCEEE66AC0ED026A5DF8044B0D
:10368000704707EE10CAF8EE476A9FED226A86EE91
:10369000267A1B4B1B6CC3F3080306EE903AF8EE38
:1036A000666A9FED196A67EE867A76EEA77AF7EE7C
:1036B000006A77EEA67A27EE277AAFE707EE10CA00
:1036C000F8EE476A9FED126A86EE267A0C4B1B6C69
:1036D000C3F3080306EE903AF8EE666A9FED0A6AB5
:1036E00067EE867A76EEA77AF7EE006A77EEA67A2C
:1036F00027EE277A92E70023036043608360BDE7EB
:10370000004402580090D003000000390024744C9B
:103710000024744A0024F44A10B4794B9A6A9C6AD3
:10372000C4F3051CD96A01F001015B6BC3F3CC0340
:1037300001FB03F314F47C7F00F0DD8002F0030250
:1037400007EE903AF8EE677A012A4BD0022A00F091
:103750009880002A40F0B280694B1B6813F0200F5C
:1037600023D067490A68C2F3C102664BD34007EE13
:10377000103AF8EE476A07EE10CAB8EE476A86EECE
:10378000867A0B6BC3F3080306EE903AF8EE666A8E
:103790009FED5D6A67EE867A76EEA77AF7EE006AAD
:1037A00077EEA67A27EE277A38E007EE10CAF8EE11
:1037B000476A9FED566A86EE267A514B1B6BC3F320
:1037C000080306EE903AF8EE666A9FED4F6A67EEE0
:1037D000867A76EEA77AF7EE006A77EEA67A27EE7B
:1037E000277A1BE007EE10CAF8EE476A9FED486A99
:1037F00086EE267A424B1B6BC3F3080306EE903A23
:10380000F8EE666A9FED406A67EE867A76EEA77AF2
:10381000F7EE006A77EEA67A27EE277A384A136B1E
:10382000C3F3462307EE903AF8EE677AF7EE006AA4
:1038300077EEA67A87EE276ABCEEC66A80ED006A4C
:10384000136BC3F3064307EE903AF8EE677A77EE10
:10385000A67A87EE276ABCEEC66A80ED016A136B12
:10386000C3F3066307EE903AF8EE677A77EEA67A2E
:10387000C7EE276AFCEEE66AC0ED026A5DF8044B0B
:10388000704707EE10CAF8EE476A9FED226A86EE8F
:10389000267A1B4B1B6BC3F3080306EE903AF8EE37
:1038A000666A9FED196A67EE867A76EEA77AF7EE7A
:1038B000006A77EEA67A27EE277AAFE707EE10CAFE
:1038C000F8EE476A9FED116A86EE267A0C4B1B6B69
:1038D000C3F3080306EE903AF8EE666A9FED0A6AB3
:1038E00067EE867A76EEA77AF7EE006A77EEA67A2A
:1038F00027EE277A92E70023036043608360BDE7E9
:10390000004402580090D003000000390024744C99
:103910000024744A0024F44A00B58BB0A0F58073EB
:103920000B432DD0A0F500730B437CD0A0F5806332
:103930000B4300F0D080A0F500630B4300F028811A
:10394000A0F580530B4300F08781A0F500530B4393
:1039500000F0DF81A0F500230B4300F02882A0F5E2
:1039600080330B4300F06B82A0F580430B4300F0E3
:103970008D82A0F50040084300F0D68200200CE0C4
:10398000934B1B6D03F00703042B00F2F782DFE873
:1039900003F007111B0325008E480BB05DF804FBF4
:1039A0008B4B186810F00070F7D007A8FFF7B4FE33
:1039B0000898F2E7864B186810F00060EDD004A874
:1039C000FFF7AAFC0498E8E7814B186810F0005054
:1039D000E3D001A8FFF7A0FD0198DEE77C4AD36C95
:1039E00003F04053126812F0040F07D033B9784B3C
:1039F0001B68C3F3C1037848D840CEE7744A126805
:103A000012F4807F03D0B3F1805F00F0B982704A76
:103A1000126812F4003F00F0B582B3F1005F00F0CD
:103A2000B3820020B9E76A4B1B6D03F4E073802B6F
:103A300031D015D9C02B00F0A982B3F5807F1ED1FB
:103A4000634AD36C03F04053126812F0040F2DD078
:103A500063BB5F4B1B68C3F3C1035F48D8409CE75F
:103A60007BB1402B09D15A4B186810F0006094D0FC
:103A700004A8FFF751FC04988FE700208DE7002091
:103A80008BE7534B186810F0007086D007A8FFF73B
:103A900043FE089881E74E4B186810F000503FF441
:103AA0007CAF01A8FFF738FD019876E7484A126815
:103AB00012F4807F03D0B3F1805F00F06982444A42
:103AC000126812F4003F00F06582B3F1005F00F06D
:103AD0006382002061E73E4B9B6D03F46003B3F506
:103AE000800F35D016D9B3F5C00F00F05782B3F56B
:103AF000000F20D1364AD36C03F04053126812F005
:103B0000040F30D07BBB324B1B68C3F3C103324878
:103B1000D84042E78BB1B3F5001F0AD12C4B18688F
:103B200010F000603FF439AF04A8FFF7F5FB0498EC
:103B300033E7002031E700202FE7254B186810F00D
:103B400000703FF42AAF07A8FFF7E6FD089824E7C6
:103B50001F4B186810F000503FF41FAF01A8FFF78B
:103B6000DBFC019819E71A4A126812F4807F03D02F
:103B7000B3F1805F00F01482154A126812F4003F1E
:103B800000F01082B3F1005F00F00E82002004E725
:103B90000F4B9B6D03F0E063B3F1007F3CD01DD968
:103BA000B3F1407F00F00282B3F1806F27D1084A61
:103BB000D36C03F04053126812F0040F37D0002B7F
:103BC00035D1034B1B68C3F3C1030348D840E4E677
:103BD000004402580080BB000090D0038BB1B3F1C9
:103BE000807F0AD19A4B186810F000603FF4D5AE80
:103BF00004A8FFF791FB0498CFE60020CDE6002053
:103C0000CBE6934B186810F000703FF4C6AE07A8DF
:103C1000FFF782FD0898C0E68D4B186810F0005041
:103C20003FF4BBAE01A8FFF777FC0198B5E6884AE0
:103C3000126812F4807F03D0B3F1805F00F0B88186
:103C4000834A126812F4003F00F0B481B3F1005FC0
:103C500000F0B2810020A0E67D4B1B6D03F4E04331
:103C6000B3F5005F35D016D9B3F5405F00F0A681FB
:103C7000B3F5804F20D1764AD36C03F040531268DD
:103C800012F0040F30D07BBB714B1B68C3F3C10330
:103C90007048D84081E68BB1B3F5805F0AD16C4B98
:103CA000186810F000603FF478AE04A8FFF734FB0A
:103CB000049872E6002070E600206EE6644B1868F7
:103CC00010F000703FF469AE07A8FFF725FD0898D3
:103CD00063E65F4B186810F000503FF45EAE01A839
:103CE000FFF71AFC019858E6594A126812F4807FCF
:103CF00003D0B3F1805F00F06381554A126812F47B
:103D0000003F00F05F81B3F1005F00F05D810020B3
:103D100043E64F4B1B6D03F4E023B3F5403F32D035
:103D20000BD8B3F5803F18D0B3F5003F20D013B9BE
:103D3000FEF72EFC31E600202FE6B3F5802F2ED0C3
:103D4000B3F5A02F07D1424B186810F400303FF4B0
:103D500024AE414821E600201FE63D4B186810F0D4
:103D600000603FF41AAE04A8FFF7D6FA059814E6EF
:103D7000374B186810F000503FF40FAE01A8FFF762
:103D8000CBFB029809E6324B186810F004003FF4B0
:103D900004AE1B68C3F3C1032E48D840FDE52C4B8D
:103DA000186810F480703FF4F8AD2C48F5E5284B06
:103DB0009B6D03F44033B3F5803F10D0B3F5003F63
:103DC00018D0002B40F00281214B186810F00060E1
:103DD0003FF4E3AD04A8FFF79FFA0498DDE51C4B20
:103DE000186810F000503FF4D8AD01A8FFF794FB1D
:103DF0000398D2E5164AD36C03F04053126812F0D0
:103E0000040F07D033B9124B1B68C3F3C103114829
:103E1000D840C2E50E4A126812F4807F03D0B3F195
:103E2000805F00F0D5800A4A126812F4003F00F06B
:103E3000D180B3F1005F00F0CF800020ADE5044BEE
:103E4000DB6C13F480330BD0ABB90020A5E500BFC9
:103E5000004402580090D00300127A0000093D008F
:103E60005F4B186810F000703FF497AD07A8FFF79C
:103E700053FC089891E55A4B186810F000603FF425
:103E80008CAD04A8FFF748FA069886E5544B9B6D65
:103E900003F0E043B3F1405F32D00BD8B3F1805F61
:103EA00018D0B3F1005F20D013B9FFF723FA74E5FF
:103EB000002072E5B3F1804F2ED0B3F1A04F07D1AF
:103EC000474B186810F400303FF467AD454864E58F
:103ED000002062E5424B186810F000603FF45DADD1
:103EE00004A8FFF719FA059857E53D4B186810F03C
:103EF00000503FF452AD01A8FFF70EFB02984CE5CD
:103F0000374B186810F004003FF447AD1B68C3F34B
:103F1000C1033548D84040E5314B186810F4807033
:103F20003FF43BAD314838E52D4B1B6D03F040535A
:103F3000B3F1805F0CD0B3F1005F14D0002B4DD1F2
:103F4000274B186810F400303FF427AD254824E5CE
:103F5000234B186810F000703FF41FAD07A8FFF75F
:103F6000DBFB089819E51E4B186810F000603FF461
:103F700014AD04A8FFF7D0F905980EE500200CE574
:103F80001A480AE5002008E5164806E5184804E541
:103F9000164802E5002000E51248FEE41448FCE45F
:103FA0001248FAE40020F8E40E48F6E41048F4E47D
:103FB0000E48F2E40020F0E40A48EEE40C48ECE499
:103FC0000A48EAE40020E8E40648E6E40020E4E4E5
:103FD0000648E2E40020E0E40248DEE40020DCE4FD
:103FE0000044025800127A000090D00300093D00FE
:103FF0000080BB00F0B583B000236FE085685E00F1
:104000000324B44025EA0405CC68B4402C43846002
:10401000456825EA0C054C68C4F300149C402C4309
:1040200044606EE08C68012C70D17EE0DD080835BC
:1040300050F8254003F0070C4FEA8C0C4FF00F0EA0
:104040000EFA0CFE24EA0E0E0C6904FA0CF444EA93
:104050000E0440F825406EE0092400E0002404FA34
:104060000EF42C430CF1020C6A4D45F82C404FF035
:10407000B0442568D44325EA02064F6817F4801F30
:1040800001D042EA05064FF0B0452E606D6804EAA3
:1040900005064F6817F4001F01D042EA05064FF0ED
:1040A000B0456E60D5F8845004EA05064F6817F4F1
:1040B000003F01D042EA05064FF0B045C5F88460E4
:1040C000D5F880502C404E6816F4803F01D042EA6B
:1040D00005044FF0B042C2F8804001330A6832FA5A
:1040E00003F400F095804FF0010C0CFA03FC1CEA7D
:1040F0000202F2D04C6804F00304013C012C7FF66C
:104100007DAF4C6804F00304032C8BD0C4684FEAE5
:10411000430E4FF0030C0CFA0EFC24EA0C0C8C68D6
:1041200004FA0EF444EA0C04C4604C6804F003047E
:10413000022C3FF47BAF04684FEA430E4FF0030CB0
:104140000CFA0EFC24EA0C0C4C6804F0030404FA8C
:104150000EF444EA0C0404604C6814F4403FBCD0F4
:104160002D4CD4F8F45045F00205C4F8F450D4F8BE
:10417000F44004F002040194019C4FEA930C0CF10A
:104180000205244C54F8255003F0030E4FEA8E0E1E
:104190000F2404FA0EF425EA0405204CA0423FF453
:1041A0005DAF04F58064A04222D004F58064A04293
:1041B00020D004F58064A0421ED004F58064A042A3
:1041C0001CD004F58064A0421AD004F58064A0429B
:1041D00018D004F58064A04216D004F58064A04293
:1041E00014D004F58064A0423FF436AF0A2436E7C9
:1041F000012434E7022432E7032430E704242EE7C5
:1042000005242CE706242AE7072428E7082426E7C4
:1042100003B0F0BD000400580044025800000258EA
:104220000AB18161704709048161704703682749B9
:10423000274A934218BF8B422FD0183293422CD07A
:104240001832934229D01832934226D01832934222
:1042500023D01832934220D0183293421DD002F559
:104260005672934219D01832934216D018329342A4
:1042700013D01832934210D0183293420DD0183216
:1042800093420AD01832934207D01832934204D096
:1042900023F0FF038365806D704710B4D9B21039E5
:1042A0000C4AA2FB0142C2F302120B4CA25CC26593
:1042B0005F2907D96FF3090304338365806D5DF8C7
:1042C000044B70476FF309038365F7E71000024062
:1042D00028000240ABAAAAAAC487000883699BB938
:1042E000836A012B0AD0022B02D00BB10020704749
:1042F000C36A13F0807F2AD100207047C36AB3F1EC
:10430000C07F26D000207047B3F5005F0AD0836AD3
:10431000022B26D9032B26D1C36A13F0807F24D128
:1043200000207047836A032B03D8DFE803F01404EE
:10433000140A00207047C36A13F0807F0DD100205B
:104340007047C36AB3F1C07F09D0002070470120D5
:1043500070470120704701207047012070470120FD
:10436000704701207047002070470120704700000F
:1043700003682149214A934218BF8B4227D0143247
:10438000934224D01432934221D0143293421ED04F
:10439000143293421BD01432934218D014329342F9
:1043A00015D0DAB2103A1649A1FB021212091549CA
:1043B0001944A8291ED9144B13449B000366134BC0
:1043C000436602F01F020123934083667047DBB20D
:1043D000083B0F4AA2FB03230E4A02EB1312920082
:1043E00002660D4A4266C3F30413012202FA03F384
:1043F000836670470832DEE7085402581C5402589E
:10440000ABAAAAAAF0FBFDBF008200108008024000
:10441000CDCCCCCC009600168058025801794A1EAB
:10442000072A2BD830B40368154D164CA34218BF89
:10443000AB4218D01434A34215D01434A34212D086
:104440001434A3420FD01434A3420CD01434A3422A
:1044500009D01434A34206D00B4B0B449B00C36617
:104460000A4B036705E00A4B0B449B00C366094BEC
:10447000036701239340436730BC7047704700BF18
:10448000085402581C5402583F8200104009024050
:104490003F9600164059025870B5044600F07CFE65
:1044A000002C00F0B981054623685349534A9342D2
:1044B00018BF8B420CBF0121002150D0183293420B
:1044C0004DD0183293424AD01832934247D0183216
:1044D000934244D01832934241D0183293423ED096
:1044E00002F5567293423AD01832934237D01832BE
:1044F000934234D01832934231D0183293422ED0A6
:10450000183293422BD01832934228D0183293425B
:1045100025D03B493B4A934218BF8B4200F034817F
:10452000394A934200F030811432934200F02C81DA
:104530001432934200F028811432934200F0248117
:104540001432934200F020811432934200F01C8117
:1045500040236365032384F8353001204AE00222BA
:1045600084F83520002284F8342079BB274A93420E
:104570002CD01832934229D01832934226D01832C8
:10458000934223D01832934220D0183293421DD048
:1045900002F55672934219D01832934216D018324F
:1045A000934213D01832934210D0183293420DD058
:1045B000183293420AD01832934207D018329342ED
:1045C00004D01A6822F001021A6003E01A6822F08F
:1045D00001021A6023681A6812F0010F18D000F067
:1045E000DBFD431B052BF5D920236365032384F8EA
:1045F0003530012070BD00BF10000240280002408D
:10460000085402581C5402583054025840000240CA
:104610001A6882491140A268E06802432069024397
:1046200060690243A0690243E0690243206A0243D1
:104630000A43616A042900F09880794909686FF398
:104640000F01B1F1005F10D361682E2940F2928012
:1046500052290AD83F2908D33F39724820FA01F17C
:1046600011F0010F01D042F480121A6026687569BA
:1046700025F00705636A1D43042B08D1A36A1D4377
:10468000E36A23B12046FFF729FE002876D1756141
:104690002046FFF7CBFDE36D03F01F023F2393405D
:1046A000836023686049614A934218BF8B4242D0BD
:1046B000183293423FD0183293423CD01832934282
:1046C00039D01832934236D01832934233D0183250
:1046D000934230D002F5567293422CD01832934256
:1046E00029D01832934226D01832934223D0183260
:1046F000934220D0183293421DD0183293421AD0E0
:104700001832934217D04A4A934214D0143293423B
:1047100011D0143293420ED0143293420BD0143283
:10472000934208D01432934205D01432934202D0FF
:104730001432934213D12046FFF71AFEA368802B50
:104740005DD0236E22791A60636EA26E5A60636830
:10475000013B072B56D90023E366236763670020DC
:104760006065012384F8353044E7E16A206B01433A
:104770000A4362E72929FFF478AF74E740236365B1
:10478000012084F8350035E7022284F83520002224
:1047900084F8342019686FF31011A268402A2CD0D5
:1047A000802A27D00022E06842EAD002206942EA4B
:1047B000D002606942EAD002A06942EAD002E06910
:1047C00042EAD002206A42EA10120A431A602268C2
:1047D000184B1344184AA2FB03231B099B00E365F3
:1047E0002046FFF723FDE26D02F01F0101228A40FF
:1047F000426056E74FF48042D5E71022D3E700230A
:1048000063609EE72046FFF709FEE36E00221A6010
:10481000236F626F5A60A2E70120EBE63F8010FE33
:104820000010005C0F030F0010000240280002403F
:1048300008540258F8ABFDA7CDCCCCCCF0B583B072
:104840000446002301937D4B1D687D4BA3FB05357A
:10485000AD0A876D3E68D7F800C0036879497A4889
:10486000834218BF8B420CBF0120002061D0774AE1
:1048700093425ED0183293425BD01832934258D0A4
:104880001832934255D01832934252D01832934284
:104890004FD002F5567293424BD01832934248D013
:1048A0001832934245D01832934242D01832934284
:1048B0003FD0183293423CD01832934239D018324C
:1048C000934236D06249634A934218BF8B4212D05A
:1048D000614A93420FD0143293420CD01432934267
:1048E00009D01432934206D01432934203D01432CA
:1048F000934240F05F821A68E16D01F01F010420CD
:10490000884010EA0C0F00F0A58212F0040F00F0AE
:10491000A182786012F4004F00F0588212F4803FB8
:1049200000F04E82A36C002B00F044822046984792
:1049300040E2E26D02F01F0108228A40324241D07B
:1049400070BB424A93422BD01832934228D018327F
:10495000934225D01832934222D0183293421FD06E
:10496000183293421CD002F55672934218D0183276
:10497000934215D01832934212D0183293420FD07E
:10498000183293420CD01832934209D01832934215
:1049900006D01832934203D01A68C2F3C00202E074
:1049A0001A68C2F380026AB11A6822F004021A601F
:1049B000E36D03F01F0208239340BB60636D43F077
:1049C00001036365E26D02F01F0226FA02F313F0A1
:1049D000010F47D023681B481B498B4218BF8342F5
:1049E0003CD018318B4239D018318B4236D0183137
:1049F0008B4233D018318B4230D018318B422DD0BE
:104A000018318B422AD001F556718B4226D01831CD
:104A10008B4223D018318B4220D018318B421DD0CD
:104A200018318B421AD018318B4217D018318B4273
:104A300014D018318B4211D01B6813E00C000024F5
:104A4000B5814E1B10000240280002404000024089
:104A5000085402581C540258305402585B6913F031
:104A6000800F3BD1E36D03F01F03042202FA03F32E
:104A700033423FD02268954895498A4218BF824206
:104A800034D018318A4231D018318A422ED01831B0
:104A90008A422BD018318A4228D018318A4225D038
:104AA00018318A4222D001F556718A421ED018313F
:104AB0008A421BD018318A4218D018318A4215D048
:104AC00018318A4212D018318A420FD018318A42E6
:104AD0000CD018318A4209D013680BE001239340AF
:104AE000BB60636D43F002036365BBE7126812F0BD
:104AF000020F3DD1E36D03F01F03102202FA03F30E
:104B000033425FD02268714871498A4218BF82429D
:104B100034D018318A4231D018318A422ED018311F
:104B20008A422BD018318A4228D018318A4225D0A7
:104B300018318A4222D001F556718A421ED01831AE
:104B40008A421BD018318A4218D018318A4215D0B7
:104B500018318A4212D018318A420FD018318A4255
:104B60000CD018318A4209D01268C2F3800208E0E2
:104B7000BB60636D43F004036365BBE71268C2F377
:104B8000C002FAB1BB6023681A6812F4802F0DD0FE
:104B90001B6813F4002F04D1236C9BB12046984767
:104BA00010E0A36C73B1204698470BE01A6812F42A
:104BB000807F03D11A6822F008021A60236C0BB1BF
:104BC00020469847E36D03F01F03202202FA03F307
:104BD000334200F0918022683C483D498A4218BF28
:104BE00082422ED018318A422BD018318A4228D0E6
:104BF00018318A4225D018318A4222D018318A428F
:104C00001FD018318A421CD001F556718A4218D043
:104C100018318A4215D018318A4212D018318A428E
:104C20000FD018318A420CD018318A4209D018317D
:104C30008A4206D018318A4203D01268C2F3400279
:104C400002E01268C2F30012002A55D0BB6094F84B
:104C50003530042B0ED023681A6812F4802F39D017
:104C60001B6813F4002F2CD0636C002B44D020461B
:104C7000984741E02268136823F016031360226806
:104C8000536923F080035361236CB3B12268136826
:104C900023F008031360E36D03F01F023F239340EA
:104CA000BB60012384F83530002384F83430236D51
:104CB000002B7FD0204698477CE0A36C002BE5D1E9
:104CC000E9E7E36BC3B12046984715E010000240C6
:104CD000280002401A6812F4807F09D11A6822F075
:104CE00010021A60012384F83530002384F8343030
:104CF000E36B0BB120469847636D002B5AD0636D70
:104D000013F0010F52D0042384F8353023689649FC
:104D1000964A934218BF8B422FD0183293422CD020
:104D20001832934229D01832934226D01832934237
:104D300023D01832934220D0183293421DD002F56E
:104D40005672934219D01832934216D018329342B9
:104D500013D01832934210D0183293420DD018322B
:104D600093420AD01832934207D01832934204D0AB
:104D70001A6822F001021A6003E01A6822F00102A8
:104D80001A60019B01330193AB4204D823681B686E
:104D900013F0010FF5D123681B6813F0010F0BD03E
:104DA000032384F83530002384F83430E36C0BB1EE
:104DB0002046984703B0F0BD012384F83530F2E770
:104DC000236C002BF6D020469847F3E712F0200F13
:104DD0003AD123686449654A934218BF8B422FD069
:104DE000183293422CD01832934229D01832934271
:104DF00026D01832934223D01832934220D0183252
:104E000093421DD002F55672934219D01832934244
:104E100016D01832934213D01832934210D0183261
:104E200093420DD0183293420AD01832934207D0E1
:104E30001832934204D01A6822F004021A6003E088
:104E40001A6822F008021A60236C002BB2D02046A8
:104E50009847AFE70220884010EA0C0F60D012F0AC
:104E6000020F5DD0786012F4004F0ED012F4803F34
:104E700005D1636C002B9DD0204698479AE7E36BE1
:104E8000002B97D02046984794E712F0200F40D18E
:104E900023683549354A934218BF8B422FD01832C8
:104EA00093422CD01832934229D01832934226D004
:104EB0001832934223D01832934220D018329342B2
:104EC0001DD002F55672934219D01832934216D073
:104ED0001832934213D01832934210D018329342B2
:104EE0000DD0183293420AD01832934207D01832AC
:104EF000934204D01A6822F00A021A6003E01A688A
:104F000022F014021A60012384F83530002384F85B
:104F10003430E36B002B3FF44DAF2046984749E710
:104F2000082000FA01F111EA0C0F3FF443AF12F030
:104F3000080F3FF43FAF1A6822F00E021A60E36DCB
:104F400003F01F03012202FA03F37B60626584F819
:104F50003520002384F83430E36C002B3FF42AAF73
:104F60002046984726E700BF100002402800024074
:104F7000134BDB6813F0040F07D1114BDB6803F010
:104F8000070383421AD00120704710B50C4AD3683A
:104F900023F007030343D36000F0FEF80446084BF8
:104FA0005B6813F4005F07D100F0F6F8001BB0F562
:104FB0007A7FF4D9012000E0002010BD0020704766
:104FC00000480258002807DB00F01F0240090123B7
:104FD0009340024A42F82030704700BF00E100E0F1
:104FE000002804DB0901C9B2044B1954704700F0D2
:104FF0000F000901C9B2024B1954704700E400E0E8
:1050000014ED00E000B500F00700C0F1070CBCF1A2
:10501000040F28BF4FF0040C031D062B0FD9C31E2D
:105020004FF0FF3E0EFA0CF021EA000199400EFA13
:1050300003FE22EA0E0241EA02005DF804FB0023AF
:10504000EEE700000649CB6823F4E0631B041B0C69
:10505000000200F4E0600343024A1A43CA6070474A
:1050600000ED00E00000FA0510B50446054BD868D5
:10507000C0F30220FFF7C6FF01462046FFF7B0FF4E
:1050800010BD00BF00ED00E008B5FFF79BFF08BDB5
:10509000BFF35F8F044B5A6A22F480325A620022B7
:1050A000C3F89420704700BF00ED00E040F001001D
:1050B000054BC3F894005A6A42F480325A62BFF337
:1050C0004F8FBFF36F8F704700ED00E04378144AB5
:1050D000C2F89830D2F8A03023F00103C2F8A03013
:1050E0004368C2F89C30017BC37A1B0643EA017314
:1050F000817A43EAC143417B43EA8143817B43EAAE
:105100004143C17B43EA0143417A43EA0123017AE7
:1051100043EA410301780B43C2F8A030704700BF57
:1051200000ED00E010B50320FFF78CFFFCF7C8FF8F
:105130000F498B69C3F303230E4AD35C03F01F03AB
:10514000D8408B6903F00F03D35C03F01F0320FAF0
:1051500003F3094A1360094B18600F2001F0BEFBEE
:1051600010B10124204610BD0446FBF747FCF9E7C7
:1051700000440258F4870008080000240C000024B2
:10518000034B1B78034A11680B441360704700BF40
:1051900000000024B8030024014B1868704700BFCA
:1051A000B803002438B50446FFF7F6FF0546B4F10E
:1051B000FF3F02D0044B1B781C44FFF7EDFF401B60
:1051C000A042FAD338BD00BF00000024014B18688C
:1051D000000C70470010005C00285DD010B504463C
:1051E00090F84130002B46D0242384F841302268C7
:1051F000136823F0010313606368226823F070636F
:1052000013612268936823F400439360E368012BE1
:1052100036D0A368226843F404439360E368022B0A
:1052200034D02268536823F40063536022685168C5
:105230001A4B0B4353602268D36823F40043D360B6
:10524000236962691343A169226843EA0123D36099
:10525000E369216A22680B4313602268136843F0F4
:105260000103136000206064202384F84130206330
:1052700084F8420010BD80F84030FBF7F3FCB3E740
:10528000A368226843F400439360C7E72268536829
:1052900043F400635360C9E70120704700800002B7
:1052A000034690F84120202A23D190F84020012A7B
:1052B00021D0012280F84020242280F8412000687B
:1052C000026822F0010202601868026822F480522B
:1052D0000260186802680A43026019680A6842F0AE
:1052E00001020A60202283F84120002083F8400058
:1052F00070470220704702207047034690F8412013
:10530000202A21D190F84020012A1FD0012280F8C4
:105310004020242280F841200068026822F0010227
:1053200002601868026822F4706242EA0122026098
:1053300019680A6842F001020A60202283F84120BD
:10534000002083F840007047022070470220704719
:10535000002848D010B5044690F83530002B32D0E4
:10536000022384F83530A3690BB1002363622268FD
:1053700011681E4B0B4013602268116863686069F6
:105380000343E068034320690343A0680343A06923
:105390000343206A0343606A0343A06A0343E06A4D
:1053A0000343206B03430B4313606368102B0DD042
:1053B0002268D36843F01E03D3600020E064012319
:1053C00084F8353010BDFBF789FBC9E7237F627F86
:1053D00043EA0223A27F43EA0243E17F226843EAD1
:1053E00001639361E4E70120704700BF07F0E0FF2D
:1053F00010B402685369916941F008019161016834
:105400008A6942F010028A6101680A6822F001028A
:105410000A6001680C69284A22400A6101688A68AA
:1054200022F440428A6090F88120042A0DD013F0C3
:10543000200F0AD0D0F8842042F08002C0F88420E7
:1054400001688A6942F020028A6190F88120032A6B
:105450000DD013F0400F0AD0D0F8842042F004029F
:10546000C0F8842001688A6942F040028A6113F41E
:10547000007F0AD0D0F8842042F00102C0F88420D6
:1054800001688A6942F400728A6113F4807F0AD04D
:10549000D0F8843043F00803C0F884300268936980
:1054A00043F4807393610023A0F86230A0F86A305F
:1054B0005DF8044B704700BF90FCFFFFC36B5B09B6
:1054C000C0680830C00803FB000070472DE9F843AE
:1054D00080460F4616461D46DDF8209000E0BDB11F
:1054E000D8F800305C6937EA04040CBF01230023BC
:1054F000B3420AD1FFF750FEA0EB0900A842EED359
:10550000B5F1FF3FEBD0032000E00020BDE8F883B9
:105510000320FBE7002800F0B78070B504460023A5
:10552000836205685C4B5D4E9D4218BFB54214BF57
:105530000126002607D0A3F574439D4203D0C3681B
:105540000F2B00F2A3802046FFF7B8FF2EB1544B7B
:105550009D4202D0082800F29B804F4A4F4B9D424B
:1055600018BF954203D003F580639D4202D11028F5
:1055700000F2908094F88130F3B1022384F88130F6
:105580002268136823F00103136023689A6802F409
:10559000F812A169B1F1806F14D0636813F4800F21
:1055A00023D0E368062B20D921680B6823F480738D
:1055B000206D03430B601DE084F880302046FBF72C
:1055C000D7FBDAE76168B1F5800F06D00029E4D196
:1055D000A16BB1F1805FE0D102E0A06B0028F5D1B2
:1055E000196841F480511960D7E721680B6823F4EA
:1055F00080730B60E369A16A0B431343E26B1343AF
:10560000E16822680B439360636B626A1343A26B89
:105610001343A26913432269134362691343226A45
:10562000134362681343E26C1343A2681343A26CF2
:105630001343A16D22680B43D36063686BB9226882
:10564000936823F4C05343F4006393602268936823
:1056500023F4C06343F4806393602268136D23F0E6
:1056600001031365636813F4800F06D02268D368C2
:1056700023F00043616D0B43D3600020C4F8840025
:10568000012384F8813070BD012070470120FAE7C2
:105690000120F8E70120F6E7003001400038004023
:1056A000003C00402DE9F04782B004468A4691460E
:1056B0001D46D0F80080FFF76FFD94F88130012B74
:1056C00040F049810646DFB2B9F1000F18BFBAF1C8
:1056D000000F00F0418194F88030012B00F04081F0
:1056E000012384F88030032384F881300023C4F838
:1056F0008430C4F85CA0A4F86090A4F8629063665B
:10570000A4F86830A4F86A3063672367A368B3F528
:10571000C02F1CD02268D36823F4C02343F4003385
:10572000D360226853686FF30F0349EA03035360A1
:105730002268136843F0010313606368B3F5800FB8
:105740000BD0E3680F2B1BD8072B4DD8ACE0226899
:10575000136843F400631360E3E72268136843F4BB
:1057600000731360EDE7E26D12681A62E36D0433B3
:10577000E365B4F8622092B2013A92B2A4F86220D2
:10578000B4F862309BB2002B00F0C98023685A69DC
:1057900012F0020FE7D1FFF7FFFC801BA84202D3F3
:1057A000B5F1FF3F01D1002DEAD12046FFF720FEE1
:1057B000D4F8843043F48073C4F88430012384F82F
:1057C0008130002384F880300327C5E0E36D1B8817
:1057D000A8F82030E36D0233E365B4F862309BB281
:1057E000013B9BB2A4F86230B4F862309BB2002B4C
:1057F00000F095802268536913F0020F15D0B4F8B9
:1058000062309BB2012BE1D9E36B002BDED0E36D5C
:105810001B681362E36D0433E365B4F862309BB236
:10582000023B9BB2A4F86230DEE7FFF7B5FC801BB9
:10583000A84202D3B5F1FF3F01D1002DD4D12046BB
:10584000FFF7D6FDD4F8843043F48073C4F8843075
:10585000012384F88130002384F8803003277BE023
:10586000B4F862309BB2012B10D9E36B73B1E36DD6
:105870001B88A8F82030E36D0233E365B4F862308A
:105880009BB2023B9BB2A4F862300DE0E36D1B7843
:1058900082F82030E36D0133E365B4F862309BB2E7
:1058A000013B9BB2A4F86230B4F862309BB2002B8B
:1058B00035D02268536913F0020F15D0B4F8623066
:1058C0009BB2032BCCD9E36B402BC9D9E36D1B688A
:1058D0001362E36D0433E365B4F862309BB2043BBA
:1058E0009BB2A4F86230DFE7FFF756FC801BA842AA
:1058F00002D3B5F1FF3F01D1002DD5D12046FFF7EE
:1059000077FDD4F8843043F48073C4F884300123E5
:1059100084F88130002384F8803003271CE000964F
:105920002B46002208212046FFF7D0FD28B1D4F8ED
:10593000843043F02003C4F884302046FFF758FD3C
:10594000012384F88130002384F88030D4F8843037
:1059500013B9002700E00227384602B0BDE8F087FF
:105960000227F9E77047000090F83D30012B3AD14B
:10597000022380F83D300268D36843F00103D3600E
:1059800003681B4AB3F1804F18BF93421DD0A2F5A4
:105990007C42934219D002F58062934215D002F501
:1059A0008062934211D002F5784293420DD0A2F565
:1059B0006C42934209D002F59432934205D01A68A2
:1059C00042F001021A60002070479968094A0A40B3
:1059D000062A18BFB2F5803F07D01A6842F00102CC
:1059E0001A6000207047012070470020704700BFF8
:1059F0000000014007000100704770477047704782
:105A000070B504460368DE681D6915F0020F10D0FA
:105A100016F0020F0DD06FF002021A610123037716
:105A200003689B6913F0030F64D0FFF7E6FF0023C0
:105A3000237715F0040F12D016F0040F0FD023684F
:105A40006FF004021A610223237723689B6913F421
:105A5000407F55D02046FFF7D0FF0023237715F075
:105A6000080F12D016F0080F0FD023686FF008024D
:105A70001A61042323772368DB6913F0030F46D0F0
:105A80002046FFF7BAFF0023237715F0100F12D03E
:105A900016F0100F0FD023686FF010021A61082360
:105AA00023772368DB6913F4407F37D02046FFF764
:105AB000A4FF0023237715F0010F02D016F0010F89
:105AC00033D115F4025F02D016F0800F35D115F4F2
:105AD000807F02D016F0800F37D115F0400F02D032
